:020000040800F2
:1000000000040020550300085703000857030008A8
:100010005703000857030008570300085703000858
:10002000570300085703000857030008B9360008B3
:100030005703000857030008570300085703000838
:100040005703000857030008570300085703000828
:1000500057030008570300089D3E0008DD3E0008D6
:10006000213F0008653F0008A93F000851440008EF
:1000700065440008794400088D440008A144000844
:10008000B5440008C9440008570300085703000896
:10009000570300085703000857030008ED3F000806
:1000A000F141000805420008094200080D4200081D
:1000B0008D480008514A0008654A0008A14600081A
:1000C000A947000857030008570300085703000812
:1000D0005703000857030008570300085703000898
:1000E000D5400008570300085703000857030008CD
:1000F000AD490008570300085703000857030008DC
:100100005703000857030008570300085703000867
:10011000570300085703000885490008994900085B
:10012000DD440008F14400080545000819450008B1
:100130002D4500085703000857030008570300081F
:100140005703000857030008570300085703000827
:100150005703000857030008570300085703000817
:10016000570300085703000857030008B14A000866
:1001700057030008570300085703000857030008F7
:1001800057030008570300085703000857030008E7
:1001900057030008570300085703000857030008D7
:0C01A0001151000815020008ED010008D4
:1001AC000348044B834202D0034B03B118477047FA
:1001BC004C1000204C10002000000000054806499F
:1001CC000B1AD90F01EBA301491002D0034B03B159
:1001DC00184770474C1000204C1000200000000005
:1001EC0010B5064C237843B9FFF7DAFF044B13B173
:1001FC000448AFF300800123237010BD5010002081
:10020C00000000007458000808B5044B1BB10449E9
:10021C000448AFF30080BDE80840CFE700000000C1
:10022C00541000207458000872B6394880F30888BE
:10023C00384880F3098838484EF60851CEF2000150
:10024C00086040F20000CCF200004EF63471CEF2A1
:10025C0000010860BFF34F8FBFF36F8F40F20000B7
:10026C00C0F2F0004EF68851CEF200010860BFF3E8
:10027C004F8FBFF36F8F4FF00000E1EE100A4EF678
:10028C003C71CEF200010860062080F31488BFF3A5
:10029C006F8F02F0E9FE02F0F1FD4FF055301F496F
:1002AC001B4A91423CBF41F8040BFAE71C49194A1E
:1002BC0091423CBF41F8040BFAE71A491A4A1B4B0E
:1002CC009A423EBF51F8040B42F8040BF8E70020A9
:1002DC001749184A91423CBF41F8040BFAE702F067
:1002EC00C7FE02F0C2FE144C144DAC4203DA54F8B3
:1002FC00041B8847F9E702F0CFFD114C114DAC42BD
:10030C0003DA54F8041B8847F9E702F0AFBE00008B
:10031C0000040020000C0020000000080000002059
:10032C000004002074580008000C00204C10002021
:10033C0050100020981F0020A0010008A801000800
:10034C00A8010008AC0100086EE700F000F8FEE719
:10035C002DE9F04F2DED108AC1F80CD0C3689D46E5
:10036C00BDEC108ABDE8F08F002383F3118828467A
:10037C00A047002003F016F903F0ABF800DFFEE70E
:10038C0053B94AB9002908BF00281CBF4FF0FF31F0
:10039C004FF0FF3000F06EB9ADF1080C6DE904CEF2
:1003AC0000F006F8DDF804E0DDE9022304B0704744
:1003BC002DE9F047089D04468C46002B40F08380C5
:1003CC008A42174647D9B2FA82F242B1C2F12000F2
:1003DC0024FA00F09140974040EA010C94404FEA17
:1003EC001748230CBCFBF8F61FFA87FE08FB16C156
:1003FC0043EA014306FB0EF1994209D9FB1806F1B9
:10040C00FF3080F01981994240F21681023E3B4444
:10041C005B1AA4B2B3FBF8F008FB103344EA0344B4
:10042C0000FB0EFEA64509D93C1900F1FF3380F004
:10043C000581A64540F2028102383C4440EA064060
:10044C00A4EB0E0400261DB1D4400023C5E90043E3
:10045C003146BDE8F08702B9FFDEB2FA82F2002A1B
:10046C0050D1CB1B4FEA174E1FFA87F80126B3FB6E
:10047C00FEFC210C0EFB1C3341EA034108FB0CF380
:10048C008B4207D979180CF1FF3002D28B4200F263
:10049C00E9808446C91AA3B2B1FBFEF00EFB101121
:1004AC0043EA014408FB00F8A04507D93C1900F1C8
:1004BC00FF3302D2A04500F2D9801846A4EB080401
:1004CC0040EA0C40BFE78B4209D9002D00F0B18007
:1004DC000026C5E9000130463146BDE8F087B3FA85
:1004EC0083F6002E4AD18B4202D3824200F2B880AE
:1004FC00841A61EB030101208C46002DA8D0C5E9BC
:10050C00004CA5E7C2F1200320FA03F6974001FA4C
:10051C0002F04FEA174ED9403043030CB1FBFEF604
:10052C001FFA87F80EFB161143EA014306FB08F18C
:10053C00994204FA02F409D9FB1806F1FF3C80F049
:10054C008D80994240F28A80023E3B445B1A81B214
:10055C00B3FBFEF00EFB103341EA034100FB08F342
:10056C008B4207D9791800F1FF3C73D28B4271D9B9
:10057C0002383944CB1A40EA064678E7C6F1200C1B
:10058C0003FA06F422FA0CF31C4320FA0CF701FAD6
:10059C0006F34FEA144E21FA0CF11F433B0CB1FB4E
:1005AC00FEF91FFA84F80EFB191143EA014109FB0D
:1005BC0008FA8A4502FA06F200FA06F308D961181D
:1005CC0009F1FF3048D28A4546D9A9F102092144E4
:1005DC00A1EB0A01BFB2B1FBFEF00EFB101147EA12
:1005EC00014700FB08F8B84507D9E71900F1FF31BE
:1005FC002ED2B8452CD90238274440EA0940A7EB43
:10060C000807A0FB02894F45C64649461AD317D0A6
:10061C005DB1B3EB0E0267EB010707FA0CFCF2407D
:10062C004CEA0202F740C5E9002700263146BDE836
:10063C00F0872E4628460BE70646E9E61846FDE607
:10064C004345E5D2B8EB020E69EB04010138DFE754
:10065C000846D2E760468DE78146B9E7664675E7FE
:10066C0030464AE7ACF1020C394413E702383C44FB
:10067C0024E700BF704700BF002301461A46184606
:10068C0000F004B938B50A4C0A4D641BA4100AD00A
:10069C0004F18043013B05EB8305013C55F804391B
:1006AC009847002CF9D1BDE8384004F037BD00BFA5
:1006BC00AC010008A8010008844641EA000313F0CD
:1006CC0003036DD1403A41D351F8043B40F8043B4D
:1006DC0051F8043B40F8043B51F8043B40F8043B10
:1006EC0051F8043B40F8043B51F8043B40F8043B00
:1006FC0051F8043B40F8043B51F8043B40F8043BF0
:10070C0051F8043B40F8043B51F8043B40F8043BDF
:10071C0051F8043B40F8043B51F8043B40F8043BCF
:10072C0051F8043B40F8043B51F8043B40F8043BBF
:10073C0051F8043B40F8043B51F8043B40F8043BAF
:10074C0051F8043B40F8043B403ABDD2303211D34F
:10075C0051F8043B40F8043B51F8043B40F8043B8F
:10076C0051F8043B40F8043B51F8043B40F8043B7F
:10077C00103AEDD20C3205D351F8043B40F8043B4F
:10078C00043AF9D2043208D0D2071CBF11F8013B4D
:10079C0000F8013B01D30B8803806046704700BF13
:1007AC00082A13D38B078DD010F003038AD0C3F122
:1007BC000403D21ADB071CBF11F8013B00F8013B04
:1007CC0080D331F8023B20F8023B7BE7043AD9D3C3
:1007DC00013A11F8013B00F8013BF9D20B78037098
:1007EC004B7843708B78837060467047F0B4860703
:1007FC0046D0541E002A3CD0CAB2034602E014F183
:10080C00FF3436D303F8012B9D07F8D1032C29D9DB
:10081C00CDB245EA05250F2C45EA054533D9A4F19F
:10082C001006360903F1200707EB061703F1100237
:10083C0042E9045542E902551032BA42F8D1721C11
:10084C0014F00C0F03EB021204F00F0613D0331F3D
:10085C0023F003030433134442F8045B9342FBD1AB
:10086C0006F003042CB1C9B21C4403F8011B9C42D2
:10087C00FBD1F0BC704734461346002CF3D1F8E79B
:10088C0014460346C2E71A462646E0E7F0B4184C75
:10089C002568D5F8484114B365681F2D24DC38B998
:1008AC00AB1C0135656044F823100020F0BC704788
:1008BC0004EB85060127C6F8882007FA05F2D4F860
:1008CC008871022847EA0207C4F88871C6F8083113
:1008DC00E6D1D4F88C311A43C4F88C21E0E705F545
:1008EC00A674C5F84841D7E74FF0FF30DEE700BFEC
:1008FC002C51000810B5174C01224FF40071204602
:10090C0003F028FE4FF40073638301224FF48071CF
:10091C00204603F01FFE4FF48073638301224FF4D3
:10092C008061204603F016FE4FF48063638301223E
:10093C004FF40041204603F00DFE4FF40043638357
:10094C0001224FF40061204603F004FE4FF40063D3
:10095C00638310BD0010004810B5044600F0BFF8CA
:10096C0030B3144AE3B214F0010F4FF4007114BF0A
:10097C001183518313F0020F4FF4807114BF118354
:10098C0051830C4A13F0040F4FF4806114BF118390
:10099C00518313F0080F4FF4004114BF118351839E
:1009AC0013F0100F034B4FF4006214BF1A835A83D9
:1009BC00002010BD00100048012070470120704736
:1009CC0008B5FFF7FBFF08BD704708B5FFF7FCFF44
:1009DC0008BD000013B502AB03E903000F4B1B78F5
:1009EC00B3B99DF80230009873B16AB101F05EFDA5
:1009FC0004460146009801F015FD0099204602B00E
:100A0C00BDE8104000F076B801F030FD0446F4E784
:100A1C00009801F04BFD0099F1E700BFE4180020AD
:100A2C0003460A4600689988FFF7D4BF10B5002129
:100A3C000446FFF7F5FF2146FFF7C7FF10BD08B5C9
:100A4C0001F06EFE08B901F0EDFEBDE8084000F0C3
:100A5C00ECB900F0EFB9704708B501F0A3F9FFF756
:100A6C00FAFF46F2A81002F0A2FDBDE8084001F022
:100A7C00A3BF38B501210446FFF7D2FF2146054636
:100A8C00FFF79EFF08B9002038BD2146284600F02C
:100A9C0065FC0028F7D02146284600F0B9FC002858
:100AAC00F1D02146284600F08DFD0028EBD0A3782C
:100ABC0033B1B5F5B84F07D045F6DF439D4206D0AC
:100ACC002046FFF779FFDFE7FFF7C6FFDBE701F012
:100ADC00A9FED8E7704708B5FFF7FCFF08BD012059
:100AEC00704710B50446FFF7F6FF2046FFF734FFBA
:100AFC0010BD0000A0225043C1F30723142202FBB7
:100B0C00030353FA81F1034B33F8110082B002B0A6
:100B1C00704700BF3051000813B5ADF804100199AF
:100B2C00FFF7E8FF00F0AAF8B0F5A44F044639D25D
:100B3C00B0F5A24F80F08680E72816D8DF280AD8B7
:100B4C00A7280BD8A4286BD8012804D0031F9BB26C
:100B5C00A12B28BF0024204602B010BDA0F1A80391
:100B6C009BB2162B61D90024F5E7B0F5A04F0AD241
:100B7C00B0F5804F61D2A0F580739BB2B3F5F85FEE
:100B8C00F1D2A4B2E7E7C0F38103C0F301125B0119
:100B9C0000F00300012443EA022384401C4344F484
:100BAC000C44EEE7B0F5AC4F1AD2B0F5AA4FC0B278
:100BBC004ED2B4F5A84F0ED28308B4F5A64F00F070
:100BCC0003004FF0010404FA00F040EA4314E6D3AA
:100BDC0044F40A44D5E74AF2F40444EA0024BAE7A0
:100BEC00B0F5B44F0CD2B0F5B24F39D2A0F5B0433A
:100BFC009BB2FF2BB7D84AF2F00040EA0424C0E7BE
:100C0C00A0F5C0439BB2B3F5005FACD2C0F3042097
:100C1C0000F0B4F8000200F4F850E4B204431CE015
:100C2C00A0F1240444F48044ABE75834124BE4B2F2
:100C3C0033F8144044F488448DE7C0F30B0444F4B7
:100C4C00204488E7C4B24AF2F10343EA042482E761
:100C5C0000F094F8000200F4F85444F400547AE7DD
:100C6C0000F00F0000F08AF8C4F3031440EA0424E7
:100C7C0044F4104485E700BFB0530008E7284DD872
:100C8C00DF2807D8312861D00ED8292857D02A2838
:100C9C0063D07047A0F1E003072B3FD8DFE803F0E7
:100CAC00123E2126303E3A3F392804D0822802D009
:100CBC0035283DD07047304B1B7813F0030F18BF0D
:100CCC00E02070472C4A1378D9074DD4527812F093
:100CDC00010F23D013F0100F08BFE32018BF002022
:100CEC007047254B1B7813F0040FF2E7224A137858
:100CFC0059073BD45278D2073AD413F0100FEDE7D2
:100D0C001D4B5A78910709D51B7813F0100F08BFAB
:100D1C00E720E3E7184B1B781A07F6D47047164AFE
:100D2C001378190726D452789207E6D5E420F5E714
:100D3C00114B1B7813F0200F18BF292070470E4B56
:100D4C001B7813F0200F18BF352070470A4B1B7807
:100D5C0013F0400F18BF2A207047074B1B7813F075
:100D6C00400F18BF3120704739207047E220704780
:100D7C00E0207047E6207047B0190020294B1A7804
:100D8C00510707D500F01801082927D100F0F7000A
:100D9C0040F00400110707D500F01801182926D1DE
:100DAC0000F0E70040F014005B78D90707D500F09D
:100DBC001801082924D100F0F70040F00100990730
:100DCC0007D500F01803182B23D100F0E70040F0F2
:100DDC001100D30648BF00F0E700704700F0140183
:100DEC00042904BF00F0FB0040F00800D2E700F03B
:100DFC001401142904BF00F0EB0040F01800D3E7F5
:100E0C0000F01101012904BF00F0FE0040F00800C1
:100E1C00D5E700F01103112B04BF00F0EE0040F0F9
:100E2C001800D6E7B0190020704708B5FFF7FCFF93
:100E3C0008BD704708B5FFF7FCFF08BD014B53F820
:100E4C00200070476C1000207047032002F0AFBBED
:100E5C0008B5202282F31188012100F00F0399407C
:100E6C0020F00F0003F076FB002383F3118808BDFC
:100E7C0038B5134D142455F8040B013CFFF7E8FF6B
:100E8C0014F0FF04F7D10F4D082455F8040B013C66
:100E9C00FFF7DEFF14F0FF04F7D10B490B4A0823D0
:100EAC00013B13F0FF0341F8044B42F8044BF7D11C
:100EBC00082000F06DF8BDE83840FFF7C0BD00BF5A
:100ECC00E0530008305400088C1000206C100020F7
:100EDC002DE9F84F0025DFF8B0902E460127A846E3
:100EEC0059F8044B202383F3118824F00F0A04F0E3
:100EFC000F0407FA04F4214601225046A4B203F071
:100F0C0029FBAAF81A4088F31188FFF79EFF07FA0D
:100F1C0005FE1B49DFF874C06FEA0E0A0823002493
:100F2C005CF8042B51F8040B22F00F0B02F00F02AB
:100F3C00DBF810B02BFA02F2D20754BF40EA0E02D3
:100F4C0000EA0A02904203F1FF331CBF41F8042C63
:100F5C00012413F0FF03E3D159F8040C0135FFF71A
:100F6C0077FF142D46EA0406BAD1064904483346E5
:100F7C00082200F00FF8FFF76CFD3046BDE8F88F43
:100F8C008C1000206C100020E05300083054000836
:100F9C0070470000F8B5104C06460F4615462BB1AD
:100FAC000123237001F0FCFC0C4B188023782BB12F
:100FBC000A4B188801F0F9FC05280AD8F8BD56F838
:100FCC00232047F8232001339D42F8DC00232370B3
:100FDC00F4E70023F8E700BFAC100020AE100020AF
:100FEC0008B500F049F940F6FF7008BD08B5074890
:100FFC0000F0FAF8064800F0F7F8064800F0F4F8AC
:10100C00BDE80840044800F0EFB800BF00E003085A
:10101C0000E8030800F0030800F80308B0F5805F4F
:10102C002DE9F041884602D30020BDE8F08145004F
:10103C0005F1006404F578344FF6FF7223889BB2F7
:10104C0093424FEAA02604D1204600F0EFF880B27C
:10105C00EBE7F602124F06F1006606F578364FF410
:10106C00006231463846FFF727FB23789845DBD0E2
:10107C0040F2FE702840002407F80080304600F053
:10108C00B3F8395D61F0FF014B1C03D089B2301904
:10109C0000F0CCF80234B4F5006FF2D1D7E700BF02
:1010AC00B010002080B2400000F1006000F57830F4
:1010BC000078704780B2FFF7B1BF83B25B0003F1D9
:1010CC00006303F578331A78431C9BB25B0003F181
:1010DC00006303F57833187842EA0020704738B57E
:1010EC0084B20D462046C9B2FFF798FF601C290A4E
:1010FC0080B2BDE83840FFF791BFFFF7F0BF82B276
:10110C00F8B5571CBFB20C465300790003F10063CD
:10111C0001F1006103F5783301F57831961CB6B214
:10112C00187891F800C0710001F1006101F5783177
:10113C00D51CADB20B78690001F1006101F5783175
:10114C001B04097843EA0C23034343EA0163A342DB
:10115C0013D0E1B21046FFF761FFC4F30721384604
:10116C00FFF75CFFC4F307413046FFF757FF210E32
:10117C002846BDE8F840FFF751BFF8BD0B4BDA68C5
:10118C00D0070CD4DA6851070BD4DA68D2060AD42B
:10119C00D86800F00100C0F10500C0B27047012012
:1011AC007047022070470320704700BF00200240A8
:1011BC0073B50446FFF7E2FF0025FF2601280FD187
:1011CC0014B9062002B070BD01950196019B1BB9A4
:1011DC00FFF7D4FF013CF1E7019B013B0193F5E7DD
:1011EC00002C08BF0620EDE738B5054640F6FF7029
:1011FC00FFF7DEFF052815D10B4C236943F00203E2
:10120C0023616561236943F04003236140F6FF705D
:10121C00FFF7CEFF06281EBF236923F002032361CC
:10122C003423E36038BD00BF00200240104B00F1B6
:10123C0078429A4270B505460E4616D81F20FFF725
:10124C00B7FF052810D10B4C236943F00103236130
:10125C001F202E80FFF7ACFF06281EBF236923F04A
:10126C00010323613423E36070BD0720FCE700BF5A
:10127C00FEFF070000200240034B044A5A6002F1B3
:10128C0088325A60704700BF002002402301674536
:10129C002DE9F047144682789DF820801D460746BC
:1012AC002C4B8A4692B11C7001F07AFB2A4B1880A9
:1012BC0004F12003DBB2072B49D804F0070401200A
:1012CC00A040C0B2BDE8F04700F05FBB1E78A6425C
:1012DC0033D1214B188801F068FB394681465046C2
:1012EC0000F0AEFF814528D2AE4205F1200415D0A6
:1012FC0006F12003DBB2072B06D806F00706012007
:10130C00B040C0B200F04AFBE3B2072B06D805F0A0
:10131C00070301209840C0B200F037FB4046E4B20E
:10132C0000F023FB072C12D805F007050120A8407C
:10133C00BDE8F047C0B200F031BB04F12003DBB2D2
:10134C00072B04D804F007040120A040F0E7BDE807
:10135C00F08700BFB0180020B218002013B545F676
:10136C00F74304469C4208460FD845F6F3439C428B
:10137C0012D845F6D9439C421DD045F6DA439C421F
:10138C003ED045F6D8439C420FD0807800283BD005
:10139C001E4B00221A701CE0A4F5B944753C022CBB
:1013AC000ED8DFE804F0181F260026230093E12353
:1013BC001A4621460AE027230093E523E522F8E7A5
:1013CC0026230093E022E12345F6F441FFF760FF6A
:1013DC00002002B010BD27230093E422E52345F63C
:1013EC00F541F3E726230093E222E12345F6F6418B
:1013FC00ECE727230093E622E52345F6F741E5E7E2
:10140C00282300930123D9E70120E2E7B01800203C
:10141C0038B505468878002800F0CF8045F615438E
:10142C009D4216D845F601439D4217D901F088F923
:10143C00634C45F615439D42208021D845F6014367
:10144C009D420CD8208801F087F900F0ABFC0020FD
:10145C0004E0A5F5B9437B3B082BE7D938BDA5F5CE
:10146C00B845033D122D1AD8DFE805F01E222633AD
:10147C00373B3F455155595D696D71757B978300BD
:10148C00A5F5B9457B3DABB2082BDBD8082DD9D8D7
:10149C00DFE805F0161B4D51376B7A8D91002378E0
:1014AC0043F001032370CDE7237843F00203F9E7FF
:1014BC00237843F00403F5E7237843F00803F1E7BE
:1014CC00637843F001036370BCE7637843F0020375
:1014DC00F9E7237843F01003E4E7237843F0200383
:1014EC00E0E7237843F04003DCE700F05BFC237873
:1014FC0043F08003D6E7237823F00C0343F00C036E
:10150C00D0E7637823F0030343F00303DBE723788E
:10151C006FF30003C6E723786FF34103C2E7237828
:10152C006FF38203BEE723786FF3C303BAE76378E4
:10153C006FF30003C7E763786FF34103C3E72378C6
:10154C006FF30413AEE723786FF34513AAE7237800
:10155C006FF38613A6E700F025FC23786FF3C7130F
:10156C00A0E7237823F00C039CE7637823F00303B4
:10157C00A9E72378C3F3800282F00102D2B262F3AE
:10158C00820362F3C3038DE76378DA4302F001024E
:10159C0062F3000362F3410395E700F003FC237848
:1015AC00C3F3C01282F0010262F3C7137AE7012081
:1015BC0001F03AF946E70020FAE701204EE700BFB8
:1015CC00B019002045F61643984210B50C461BD1B5
:1015DC0000F0ECFFA2780D4B72B100F0AA000028CD
:1015EC0015BF01220022352029201A7000F0AEFF11
:1015FC0001F038F8002010BD1B78002B14BF3520EB
:10160C00292000F0ABFFF3E70120F4E7B418002029
:10161C00014B1860704700BFB8180020024B1868C7
:10162C0008B1036818477047B8180020024B1B68B4
:10163C000BB15B6818477047B8180020054A118831
:10164C00814205D0044B10801B680BB1DB68184736
:10165C00704700BFBE180020B8180020054A11883A
:10166C00814205D0044B10801B680BB11B691847D5
:10167C00704700BFBC180020B81800207047704796
:10168C0008B5FFF7FCFF08BD08B5FFF7F7FFFFF73C
:10169C0031F908BD0120704708B5FFF7FBFF08BD05
:1016AC007047704708B501F059F9FFF7E1FB01F0FD
:1016BC00B9F9FFF7E5FF08BD2DE9F347FFF7F0FF98
:1016CC00FFF7EFFFFFF704FCFFF7E6FF00284CD015
:1016DC00DFF8C8A0DFF8C890002457465FFA84F8FA
:1016EC004046FFF7ABFB5AF8045B8542064639D0FF
:1016FC0099F800309B0701D5FFF7A6FB85EA060297
:10170C00002301252A42D9B227D02E4214BF01232F
:10171C0000238DF800108DF802308DF8018001F057
:10172C003FF940F0010002ABADF8040013E90300EF
:10173C0000F038F857F824305D4047F82450164C28
:10174C00FFF76CFF2378834222D0FFF767FF2070EE
:10175C0002B0BDE8F047FFF7C4B90133142B4FEAD0
:10176C004505CFD10134082CB8D14FF6FF73ADF835
:10177C00003000238DF8023001F012F940F0010026
:10178C00ADF8040002AB13E9030000F00BF8D6E748
:10179C0002B0BDE8F08700BFC0180020C4180020BC
:1017AC00A919002084B06B4683E803000022ADF831
:1017BC000E2093E8030004AB0290ADF80C1013E973
:1017CC00030004B000F03EBD008800F08FBE0000A6
:1017DC0010B5044600286DD0822813D1FFF71EFFE8
:1017EC00810767D4392000F0B1FE00F03BFF42F2D4
:1017FC00107001F0DCFE392000F0B0FEBDE81040A6
:10180C0000F030BF83280ED1FFF708FFC20751D478
:10181C00532000F09BFE00F025FF42F2107001F007
:10182C00C6FE5320E8E784280ED1FFF7F7FE4307E6
:10183C0040D4472000F08AFE00F014FF42F21070F2
:10184C0001F0B5FE4720D7E7031FDBB2A02B0ED863
:10185C00194B0146186800F0F9FF20B1204600F042
:10186C007DFE00F0FFFE204600F070FEC6E700F1A2
:10187C002003DBB2072B07D800F007040120A0409F
:10188C00C0B200F099FEB9E700F15B03DBB2022BAA
:10189C0005D82438BDE8104080B2FFF7CFBE5834CD
:1018AC00E4B2162C06D8054B33F81400BDE81040F2
:1018BC00FFF7D4BE10BD00BF3010002050540008FC
:1018CC0008B5034600284FD082280FD1FFF7A6FE9B
:1018DC00810749D5392000F039FE00F0C3FE3920CC
:1018EC0000F03CFEBDE8084000F0BCBE83280AD1E5
:1018FC00FFF794FEC20737D5532000F027FE00F007
:10190C00B1FE5320ECE784280AD1FFF787FE43078A
:10191C002AD5472000F01AFE00F0A4FE4720DFE78E
:10192C00021FD2B2A02ADBD900F12002D2B2072AC0
:10193C0007D800F0070301209840C0B200F044FE25
:10194C00D0E700F15B02D2B2022A04D8BDE808400D
:10195C000020FFF773BE5833DBB2162B04D8BDE85A
:10196C0008400020FFF77ABE08BD10B50446FFF70B
:10197C002FFF392C0CBF4FF4FA50012001F017FE49
:10198C002046BDE81040FFF79BBF08B528B100F01A
:10199C0013FEBDE8084000F065BE08BD08B528B1CF
:1019AC0000F012FEBDE8084000F05CBE08BD2DE959
:1019BC00F3478679857880460C4636090DB100F0E0
:1019CC0021FE00F0E9FD074698B12DB3C4F30723BF
:1019DC0003F0F003402B04D004F12003DBB2072BFF
:1019EC001AD9022000F084FE00F0D6FD80F0010030
:1019FC00C7B2C4F30339B9F10B0F3BD8DFE819F0C8
:101A0C000E000E005F005F00AB003A003A003A0097
:101A1C00C2001E012E012E010027EAE7C4F30723A2
:101A2C00C4F3032613F0F00F18BF3601E4B295B1DE
:101A3C0056B104F12003DBB2072B304600D93CB978
:101A4C0000F0BAFD00F00EFE2046FFF7C1FE11E0DB
:101A5C0000F0C8FDF6E72046FFF732FF56B104F15F
:101A6C002003DBB2072B304600D92CBB00F0ACFDB9
:101A7C0000F0F8FDA9F10809B9F1030F03D8FFF73D
:101A8C00CDFDFFF72EF8002F00F03D8100F07CFD1E
:101A9C0010F0010040F0378188F8020000F06CFD76
:101AAC0000F086FC404600F044F900F065FD02B001
:101ABC00BDE8F04700F086BC00F09CFDD8E7C4F30D
:101ACC00072303F0F003C4F3032A202BE4B218BF5E
:101ADC004FEA0A1A64B1012C28D07DB34EB398F8A2
:101AEC000630D907B0D56FF3071388F8063020E01D
:101AFC0095B13EB900F092FD40EA0A00C0B2FFF782
:101B0C0044FFB7E7012EF5D100F088FD40EA0A004A
:101B1C00C0B200F08FFDADE72EB900F097FD504636
:101B2C00FFF73CFFA6E7012EA4D0F6E71DB1052E6A
:101B3C00A0D85046E3E7042E9CD8F0E7002EEED058
:101B4C00392C0CBF4FF4FA50012001F030FD204627
:101B5C00FFF7B6FE8EE714F4406FC4F3812307D071
:101B6C00012B87D165B1C4F30900FFF777FD81E73D
:101B7C0025B1C4F30900FFF761FD7BE72846FAE7BE
:101B8C002846F2E714F4407F27D1002D7FF472AF82
:101B9C00C4F34210E2064FEA800048BF0F25C0B2E2
:101BAC0048BF854004F00F03C4F3812448BFED43C4
:101BBC008340022C45EA030009D0032C0AD0012CE7
:101BCC0002D000F0CBFB55E700F0C0FB52E700F071
:101BDC00CDFB4FE700F0B7FB4CE7C4F3012215B384
:101BEC0002F00103002B3FF445AFC4F34210800018
:101BFC00C2B204F00F0000FA02F114F010001CBF86
:101C0C000F2303FA02F0C4F3812414BFC343034629
:101C1C00022C43EA01000BD0032C0CD0012C04D075
:101C2C0000F0EEFB26E75308DCE700F0E1FB21E7D0
:101C3C0000F0EEFB1EE700F0A7FB1BE7E6B2C4F3D7
:101C4C00032425B1204600F0B3FB304657E730465D
:101C5C00FFF7A4FE204600F0B5FB0BE75FFA84FA11
:101C6C00AAF1F003042B39D8DFE803F0030E151AA0
:101C7C0023003DB1042E3FF6FDAEC4F3042000F06A
:101C8C00ADFBF7E6052EF6E7C4F30420002DE2D0F9
:101C9C0000F08EFBEEE6C4F30420002DF8D0DAE75A
:101CAC0025B1C4F3042000F07EFBE3E600F078FBE2
:101CBC00E0E64DB1C4F30420019000F079FB0198EB
:101CCC00032100F0FBFCD5E6012000F011FD012EF4
:101CDC007FF6D0AE022000F00BFDCBE62DB10EB19D
:101CEC005046B2E6C4F30420D2E74EB1BAF1390F34
:101CFC000CBF4FF4FA50012001F059FC504627E775
:101D0C00C4F30420A7E702B0BDE8F08713B501883F
:101D1C000446807800F0F6FB0146019100F080FB50
:101D2C0000F010FB0199204602B0BDE81040FFF70F
:101D3C003EBE13B583880288ADF804200446CBB1AF
:101D4C00BDF804204FF6FF739A4213D0FEF791FEB4
:101D5C0050B900F021FC68B1A3785BB1022002B04D
:101D6C00BDE8104000F0C4BC2046FFF7CFFF204672
:101D7C00FEF75CFE02B010BD08B500F043FC00F0AD
:101D8C0047FC00F06FFC0020FFF758FCBDE8084052
:101D9C000020FFF763BC08B500F0E8FBBDE8084085
:101DAC00FFF7EABF08B500F017FCBDE80840FFF7E5
:101DBC00F2BFC0F30332023AC3B20D2A1CD8DFE8DB
:101DCC0002F007071B1B141B1B1B0707181B1B18F8
:101DDC00F02B13D004D8E72B8CBF002001207047C8
:101DEC00F42B14BF002001207047E72B06D9F12BF0
:101DFC00F7E7C0F3C0207047002070470120704700
:101E0C0007B5ADF80400019800F070FB03B05DF865
:101E1C0004EBFFF7CEBF82B002AB03E9030002B0C4
:101E2C00704782B002AB03E9030002B070470000B8
:101E3C0070B5094B094E1C78094D3378A34200D17B
:101E4C0070BD05EBC40355F8340059680134FFF735
:101E5C00E8FF04F00704F0E72F1900202E190020EA
:101E6C00EE180020024B18685968FFF7DABF00BF64
:101E7C00E6180020214BF7B59A7912F0F00F0AD131
:101E8C009A7842B11E4A1F4E12781F4D4FF6FF77BB
:101E9C003178914201D103B0F0BD98881988ADF822
:101EAC00041038B389B2B94224D005EBC20493F8BC
:101EBC0001C061788C451DD193F800C015F8321023
:101ECC008C4517D1A178A9B9A188091A89B2C7295B
:101EDC0010D899790948012262F307119971A379F5
:101EEC0062F30713A371FFF724FF03B0BDE8F040C2
:101EFC00FFF79EBF013202F00702C9E7E618002087
:101F0C002F1900202E190020EE1800202DE9FF4774
:101F1C00C74F0446B98800680090388823786278E7
:101F2C0094F80280B4F804A0ADF80800EC463D46E5
:101F3C00002900F0D48080B24FF6FF7E704500F08F
:101F4C00CE80BE78002E00F0CA80AAEB0101B879D1
:101F5C0089B2C72900F0F00900F293803988ADF8F6
:101F6C000810B9F1000F4BD17145C1461BD08DF84B
:101F7C0000308DF80120BDF800C08C4513D1B8F1AC
:101F8C00000F40F01C81012363F30710B871FFF7B9
:101F9C0069FF3846FFF7CDFEBB79A37100263046AA
:101FAC0004B0BDE8F087BAF1000F40F00C81B8F135
:101FBC00000FF3D0AB7943F00103AB71EEE700EB0C
:101FCC00C10595F801C0944506D110F831C09C4567
:101FDC0002D1AD78002DE1D1013101F0070106E10C
:101FEC0010F4706F02D0002B00F020812033DBB294
:101FFC00072B40F21B812046FFF79BFEB14615E1F3
:10200C00714515D08DF800308DF80120BDF800C059
:10201C008C450DD1B8F1000F0AD1A0712046FFF705
:10202C0088FE23683B6063687B60FFF71BFFB6E7A5
:10203C008DF800308DF801200098FFF7E1FEE0B13B
:10204C00B8F1000F19D0AB791F2B0CD92A88ADF839
:10205C00082002A800228DF80A20ADF80CA08DF8FB
:10206C000E30FFF766FE23682B6063686B60FFF72A
:10207C0001FFFFF7F7FE012691E72046FFF759FE17
:10208C00F9E7B9F1000F15D18DF800308DF801206A
:10209C008DF80280ADF804A09CE80300FFF7BBFEAE
:1020AC003846FFF746FEC7F80090C7F80490FFF7D4
:1020BC00D9FEBBE08DF800308DF801203988BDF8D1
:1020CC0000C08C45B4D1B8F1000FB1D1A07120463D
:1020DC00FFF72FFEC7F80080C7F804805FE7288859
:1020EC00ADF80800002951D086B24FF6FF70864239
:1020FC004CD0AE78002E49D1AAEB010189B2C72988
:10210C0035D84646002EB8D08DF800308DF8012019
:10211C002988BDF800308B421CD1AB79DA0714D476
:10212C0013F0F00211D0F02AA37106D0DBB2C3F386
:10213C000312013262F30713A3712046FFF7F9FD76
:10214C0023682B6063686B606FE723682B606368A0
:10215C006B6024E70098FFF753FE002883D1AB791E
:10216C00204643F00103AB71FFF7E3FD17E78DF851
:10217C000280ADF804A08DF800308DF801209CE8A9
:10218C000300FFF748FE2E606E604EE7B8F1000FBB
:10219C003FF473AF8DF800308DF801200098FFF7F5
:1021AC002FFE064600283FF468AF23682B60636857
:1021BC001F486B60FFF708FBFFF75CFE35E7BAF1D1
:1021CC00000F3FF4F7AE8DF808308DF80920BDF8FC
:1021DC0008004FF6FF7188423FF4E9AEB8F1000FEA
:1021EC007FF4E8AE13481449077809781348B942CC
:1021FC007FF4E5AE8DF800308DF80120009800F0EA
:10220C0075F9C0F30332012AC3B27FF6E9AE0E3280
:10221C0002F00F02012A3FF6EEAE10F4706F3FF49D
:10222C00E5AEA27912F0F00F7FF4E0AE4E46B6E6C2
:10223C00E61800202E1900202F190020EE1800207F
:10224C00C8207047F0B587B06D4685E80300284676
:10225C00FFF75CFE2E4F2F4E044688B1BDF80430BC
:10226C00BDF80020ADF8102043B192B24FF6FF73C9
:10227C009A4203D095E80300FFF7D3FD264C41E0CA
:10228C0095E8030004AB83E80300BDF80410BDF827
:10229C001020ADF80C200029F0D01FFA82FC4FF66C
:1022AC00FF7294453D783078E8D06A1C02F0070242
:1022BC0082420DD0184CADF8141003CB04EBC50CB6
:1022CC0044F835003A70CCF80410FFF7B1FDD5E7AF
:1022DC00FFF768FD114B3C7034701C605C60CDE7FF
:1022EC0004EBC000FFF712FE80B1337804EBC3029D
:1022FC0054F833005168FFF794FD3378013303F041
:10230C000703337030783B788342E9D107B0F0BDD6
:10231C002E1900202F190020EE180020E61800209E
:10232C00704708B5FFF7FCFF08BD000008B5FFF7C4
:10233C00F8FF034B1860BDE80840FFF71DBD00BF58
:10234C00301900207047FFF7F1BF0000024B1B68EB
:10235C001843FFF7EBBF00BF30190020024B1B687E
:10236C001840FFF7E3BF00BF30190020024B1B6879
:10237C005840FFF7DBBF00BF30190020704708B58D
:10238C00FFF7FCFF08BD000008B5FFF7F8FF034B93
:10239C001860BDE80840FFF7EFBC00BF34190020FF
:1023AC000020FFF7F1BF012303FA00F0FFF7ECBFA9
:1023BC00012303FA00F0024B1B681843FFF7E4BF3C
:1023CC0034190020012303FA00F0034B1B6823EAA5
:1023DC000000FFF7D9BF00BF34190020012303FA16
:1023EC0000F0024B1B685840FFF7CEBF3419002099
:1023FC00024B1B681843FFF7C7BF00BF34190020FE
:10240C00024B1B681840FFF7BFBF00BF34190020F8
:10241C00024B1B685840FFF7B7BF00BF34190020B0
:10242C0070470000C0F3072303EB830337B500EBC1
:10243C00830000F0070301229A40C0F3C4000A4B4A
:10244C0000EB8000D2B218440024057821FA04F382
:10245C0043F300036B40134001346B40052C00F830
:10246C00013BF2D103B030BD38190020C0F3072373
:10247C0003EB830313B500EB83000B4900F0070457
:10248C00C0F3C40000EB800000220144104611F898
:10249C00013BE34003F00103934001321843052A4A
:1024AC00C0B2F4D102B010BD381900200D4B73B579
:1024BC001E680D4BADF804001B681F241E4326FA42
:1024CC0004F3DB07E5B205D4013CF8D2002528461D
:1024DC0002B070BD01992846FEF71EFB80B20128A0
:1024EC00F2D0F4E7341900203019002007B5ADF80C
:1024FC0004000198FFF7DAFF019903B05DF804EBD3
:10250C00FEF70ABB13B5104BADF804101B782BB1BA
:10251C00019802B0BDE81040FFF7E8BF70B1019818
:10252C00FFF7C4FF044601460198FFF77BFF0199B2
:10253C00204602B0BDE81040FEF7EEBA0198FFF756
:10254C0095FF0446F3E700BFE4180020024B014658
:10255C00186800F0AEB900BF30100020024B0146E5
:10256C00186800F0A8B900BF30100020014B1868A3
:10257C0000F0A3B930100020024B93F90000C0F317
:10258C00C7007047A5190020024B187800F007000F
:10259C00704700BFA5190020034B187810F00700F6
:1025AC0018BF0120704700BFA5190020014B1878F7
:1025BC00704700BFA7190020024B1A7810431870FF
:1025CC00704700BFA7190020024A137823EA0000C5
:1025DC0010707047A7190020014B00221A70704729
:1025EC00A7190020024B1A7810431870704700BFCF
:1025FC00A8190020024A137823EA000010707047D3
:10260C00A8190020014B00221A707047A81900204D
:10261C00014B00221A707047A4190020014B187846
:10262C00704700BFA6190020704708B5FFF7FCFFE4
:10263C0008BD000008B5044A1178814202D0107020
:10264C00FFF7F3FF08BD00BFA619002008B5044B27
:10265C001A781AB100201870FFF7E7FF08BD00BF09
:10266C00A619002010B50D4B0D491B7809780D4C9F
:10267C000B430D49206809780B430C49037009780A
:10268C0031B10B43037000F0D3F808B1FFF7DEFF54
:10269C002068BDE81040FEF7C9BF00BFA719002095
:1026AC00A819002030100020A4190020A619002021
:1026BC00704708B5FFF7FCFF08BD000010B5064CCD
:1026CC0041EAC0012170FFF773FE94F90000C0F3DA
:1026DC00C700FFF7EEFF10BDA519002008B5034B8E
:1026EC0000201870FFF7E5FF08BD00BFA5190020FA
:1026FC0008B50A4A92F9003023EA000040B2107083
:10270C0042070AD1DBB2834207D0C0F3C700FFF700
:10271C0059FEBDE80840FFF7E1BF08BDA519002030
:10272C0008B50020FEF7C9FC4FF6EC63C31A5842FB
:10273C00584108BD0220FEF7B5BC0320FEF7B2BC21
:10274C0010B50420FEF7AEFC04462120FEF7AAFCCF
:10275C0044EA002080B210BD10B5C1B2044604207A
:10276C00FEF7A8FC210A2120BDE81040FEF7A2BC10
:10277C0001460F20FEF7C3BC01461320FEF7BFBC79
:10278C000020FFF7F9BF08B50020FFF7F1FFFFF7B6
:10279C00F7FF08BD10B5FEF729FC4FF6EC610020E1
:1027AC00FEF7ABFC00210220FEF784FC0021032085
:1027BC000024FEF77FFC1A4B214604201C60FEF718
:1027CC0079FC21462120FEF775FC21460520FEF7F9
:1027DC0071FC21460620FEF76DFCFF210720FEF759
:1027EC0069FC21460820FEF78AFC21460D20FEF7E5
:1027FC0061FC21461820FEF782FC21461720FEF7CB
:10280C0059FC21461C20FEF77AFC21462020FEF7BD
:10281C0051FC21461820FEF772FCFFF7B4FF10BDE7
:10282C0030190020FFF7B6BF01460E20FEF742BC60
:10283C00821C00F1080300209A4200D1704712F864
:10284C00011B0029F8D00130C0B2F5E739B1831C67
:10285C00083013F8012B8A4203D08342F9D10020AF
:10286C0070470120704730B54FF0FF32841C0023B5
:10287C0014F8015B8D420ED0B2F1FF3F02D1002D56
:10288C0008BF1A460133DDB2062D5BB2F0D1531CE2
:10289C0001D01044817030BD10B5831C002208306B
:1028AC0013F8014B8C4208BF03F8012C8342F7D17B
:1028BC0010BDFFF7D8BFFFF7EFBF0023C0F8023001
:1028CC00C3807047704708B5FFF7FCFF08BD08B51B
:1028DC000020FEF706F9FFF7F6FFBDE8084040F2CE
:1028EC00A46000F064BE7047704710B5FFF7FBFFA3
:1028FC00FEF7EEFAFFF7F8FF0024E0B2FEF79EFABF
:10290C0018B90134082CF8D110BD0120FCE7704730
:10291C0008B5FFF7FCFF08BD08B5FFF75DFEFFF734
:10292C0071FEFFF723FE0020FEF788FE0020FEF765
:10293C0095FEFEF773FEFEF7D4F8FFF7E9FF08BD2E
:10294C00202383F311884FF080435A6A002383F3CA
:10295C001188014B1A607047AC190020FFF7F0BFCB
:10296C0038B5202383F311884FF08043596A002334
:10297C0083F31188074B084C1B68084AC91A4FF49B
:10298C007A700025E0FB0145002320462946FDF71F
:10299C00F7FC38BDAC1900209F860100A086010011
:1029AC0008B5FFF7DDFF80B208BD10B50446FFF790
:1029BC00D7FF001B80B210BD074B084A1A60BFF34B
:1029CC004F8F0749074BCA6802F4E0621343CB6090
:1029DC00BFF34F8F00BFFDE7FC9F0020EFBEADDEC5
:1029EC0000ED00E00400FA050A4A08B552F8041C90
:1029FC00094B99420DD1002342F8043C83F314880F
:102A0C00064B1B6883F3088862B6054B1B68984716
:102A1C00FEE708BD00A00020EFBEADDE00D8FF1F12
:102A2C0004D8FF1F08B5FFF77BFE08B9FFF7FAFEC5
:102A3C00FFF780FE074B1870FFF782FE064B1880DD
:102A4C00FFF77BFEFFF77FFC044B1868BDE80840DE
:102A5C00FFF795BCA9190020B019002034190020EB
:102A6C00202383F31188002383F311887047704768
:102A7C0038B5094C104622460D46002142F8041F79
:102A8C0040EA0520194600F03DFA206060680028F5
:102A9C0018BF204638BD00BFB419002090F87A103A
:102AAC00074A0229137807D103F0FB03012B05D148
:102ABC00044B52781A707047024A1370704700BF6B
:102ACC00F2190020E8190020022938B505460C46F9
:102ADC0002D0052910D038BD202383F31188084A71
:102AEC00012100F0DDFE074A2146284600F0D8FE01
:102AFC00002383F31188EEE7BDE83840FFF70CBFE5
:102B0C0080540008A454000813B504460748C26852
:102B1C000B461AB1019100F0B3FB019B044A034828
:102B2C00214602B0BDE8104000F06EBBD419002065
:102B3C00412B000870B52023064683F311880378D7
:102B4C00042B03D0002383F3118870BD124C227820
:102B5C00002AF7D0114B1B78002BF3D003899B076D
:102B6C0004D40F4A0823012100F0ECFE0D4B24780D
:102B7C0040F2E730A4FB034520184FF000014FF45E
:102B8C007A724FF0000345EB0101FDF7F9FB31467A
:102B9C008000FFF7B9FFD5E7D019002034100020D2
:102BAC00E9190020A0860100F8B590F8743003F004
:102BBC007F02212A044640F0868013F0800F90F8A3
:102BCC00750021D0022819D003280ED001287AD103
:102BDC0094F878302BB94B4AA2660822E266236738
:102BEC00F8BD0023C4E91A33F9E7B4F87830002BA8
:102BFC0069D1454AA2660120E066F0E7434BA36623
:102C0C000120E0660023EAE70A283AD00B280DD011
:102C1C00092858D194F87830012B54D83C4BA36632
:102C2C000223E3663B4B23670120D9E7B4F87850C5
:102C3C001DBB94F87630344A003B18BF0123137047
:102C4C00324B1A78CAB1202282F311881E78324B8B
:102C5C0040F2E730A6FB036730184FF000014FF449
:102C6C007A724FF0000347EB0101FDF789FB214617
:102C7C008000FFF749FF85F311880023C4E91A335C
:102C8C00D1E794F87720214B1A70002AF5D0202236
:102C9C0082F311881E78204B40F2E730A6FB0367C5
:102CAC0030184FF000014FF47A724FF0000347EBED
:102CBC000101FDF765FB21468000FFF725FF00238E
:102CCC0083F31188D9E7B4F8742040F281639A42F7
:102CDC0001D0002084E794F87920616894F878306A
:102CEC004D6894F8771043EA0223204694F8762036
:102CFC00A8470028EDD04368A3660368E366002369
:102D0C0091E700BFE919002034100020D0190020F1
:102D1C00F2190020A92A0008A086010070470000C3
:102D2C0070B54FF0904501224FF4805104464FF49A
:102D3C0080564FF0904001F00DFC09486E8300F076
:102D4C0036FC0849204600F06BFD40F20272314619
:102D5C00284601F0FFFB044B0022DA6070BD00BF77
:102D6C00F0490200C8540008D419002070B54FF087
:102D7C00904504464FF4805600F068FD01224FF454
:102D8C0080514FF0904001F0E5FB204605496E83E1
:102D9C0000F046FD3146284640F20272BDE8704014
:102DAC0001F0D8BBC8540008014B1878704700BF1D
:102DBC00E819002038B50446202383F31188104D00
:102DCC002B78042B0DD12B899B070ED4082322467C
:102DDC000B48012100F0B6FD0A4A236813606368B2
:102DEC005360002383F3118838BD2B6958694FF069
:102DFC00FF310C3000F0E8FB2B78042BE6D0F0E729
:102E0C00F41E0020E91900207047000013B52023A0
:102E1C0083F31188094C2378042B04D0002383F30B
:102E2C00118802B010BD0323ADF8050001AA0221E0
:102E3C0020468DF8043000F085FDEFE7F41E0020ED
:102E4C0013B5202383F31188094C2378042B04D069
:102E5C00002383F3118802B010BD8DF80430ADF857
:102E6C000500032301AA0221204600F06BFDEFE7C9
:102E7C00F41E0020FFF7B8BD7047704708B5FFF788
:102E8C00F9FF02F0FBF8FFF7F7FF08BD08B502F0F9
:102E9C0037F9FFF7F2FF08BD38B500F045FC00F03C
:102EAC000FF9FEF79DF8FEF7EFFB1448134DFFF7F3
:102EBC0037FF41F2883000F07AFBFEF7F3FB104845
:102ECC00FEF7A6FB2C462B78052B11D0FEF7F4FB56
:102EDC00FEF7E6FBFEF7E5FBF5E7FFF7F8FCFFF77F
:102EEC0004FD28B1204600F03FFD2046FFF73EFFD1
:102EFC002378052BF1D0FFF7B5FBE7E7F41E002094
:102F0C003810002010B5040A032C0FD007D8012C60
:102F1C0021D0022C07D1144B3B20136010BD212C67
:102F2C000DD0222C11D000200346F6E7C0B20228A7
:102F3C00F9D80E4B0E4953F82030085CEDE769B117
:102F4C000129F0D10B4B0920E7E751B10129EAD156
:102F5C00094B3220E1E7094B1220DEE7084B092030
:102F6C00DBE7084B4020D8E7E7540008D8540008AA
:102F7C00E454000812550008A85500082255000812
:102F8C00F954000834550008024B034A1A60034AEE
:102F9C005A607047081A0020981F002000A00020DB
:102FAC0070B50A4C25682A44431E013A4E4250180B
:102FBC000B4462683040334003449A4203D39D4231
:102FCC0001D8236070BD0020FCE700BF081A002068
:102FDC0008B5202383F31188FFF7E2FF002383F366
:102FEC00118808BD0448054B03600023C0E9013378
:102FFC000C3000F055BB00BF101A0020DD2F00086C
:10300C0010B50024C0E90041C0E9022310BD002224
:10301C00FFF7C6BF10B5124C204600F041FB14213F
:10302C0004F110036018236104220E4BFFF7E8FF34
:10303C0004F12402626204F128020A4BA2621C21F0
:10304C00042204F12C00FFF7DBFF04F13C03E363E3
:10305C0004F14003236404F14403636410BD00BF16
:10306C002C1A00201B30000870477047FEE7000048
:10307C001149F0B508200026D1E901340A681D4633
:10308C00043AAC4210D8E21CD21ADD1E22F0030224
:10309C00AC4238BF00221344CA689A4209D801389E
:1030AC0001F11001E8D1F0BD52F8047F45F8047B22
:1030BC00E7E743F8046BF0E7DC550008FEE7000097
:1030CC0010B51D4C00F016F900F090F800F0D4FA91
:1030DC00FFF75AFFFFF786FFFFF79CFF1749802287
:1030EC00204600F0F9F9164BC361012380F820301B
:1030FC00144B154AD96844F8180C21F4E061090402
:10310C00090C0A431149DA60CA6842F08072CA603D
:10311C000F490A6842F001020A601022DA77202275
:10312C0083F82220002383F3118862B60948BDE896
:10313C00104000F007BA00BF081C00208C56000895
:10314C000004002000ED00E00003FA05F0ED00E0C3
:10315C00001000E06456000872B6014BD862FEE71E
:10316C00D81B00202DE9F84F1F4C0027E56904F10E
:10317C001C09B8464FF08043A9685A6AA36AD61A4C
:10318C008E421DD34FF0200AAA68A36AD5F80CB062
:10319C001344A3622B684B45C3F80490A6EB0206BC
:1031AC00E361EF6001D100F010FB88F3118828690E
:1031BC00D8478AF31188E569AB689E42E4D2D9E717
:1031CC00E16949450DD08868A26203449B1A8B6063
:1031DC00A868BDE8F84F02282CBF1018901C00F00E
:1031EC00F9BABDE8F88F00BFD81B0020054B03F1DE
:1031FC001C02C3E907224FF0FF310022C3E9091278
:10320C00704700BFD81B0020F8B5C0E903234FF06E
:10321C00804302295C6A194B1A4638BF022152F8C6
:10322C001C5F954206461F460AD1C3E907009C6203
:10323C00C0E9005581600819BDE8F84000F0BDBA3E
:10324C00986AAB68241A0C1902D32D68E41A04E0AE
:10325C00A34202D9204400F0BDFAAB68A342F4D3D8
:10326C006B68736035601E606E60B460AB681C1B6D
:10327C004FF0FF33AC607B62F8BD00BFD81B002061
:10328C001B4902680B4610B453F81C4F84420FD0F4
:10329C0041680A60026851609A424FF00001C160B7
:1032AC0003D0936881680B4493605DF8044B7047BE
:1032BC0000209A42CA615360E06003D15DF8044B70
:1032CC0000F083BA9368A068034493604FF0804287
:1032DC00886A526A111A8B42E7D9821A1A44012A57
:1032EC0098BF8B1C5DF8044B184400F073BA00BFF8
:1032FC00D81B0020034B0022C3E90033C3E904337D
:10330C009A607047D81B0020002380F82030826818
:10331C00054B1B6899689142FBD25A680360426066
:10332C0010605860704700BFD81B002008B52023E0
:10333C0083F3118890F820200023072A07D8DFE8B0
:10334C0002F00C060604130F0613426A13604FF0CA
:10335C00FF334362FFF7D8FF002383F3118808BDC6
:10336C00426A936801339360D0E9003213605A606B
:10337C00EDE70000002380F820308268054B1B68C5
:10338C0099689142FBD85A6803604260106058609B
:10339C00704700BFD81B002038B50D4CA5692268BA
:1033AC0085F82000116821604C600121A26182F82F
:1033BC002010EFF30982E969643A914202D9054879
:1033CC00FFF7CAFEA0692946BDE83840FCF7C0BF2C
:1033DC00D81B00207C56000830B54B1C0B4D87B019
:1033EC00044610D0AB690A4A01A8FFF70DFF20462E
:1033FC00FFF7D2FF049B13B101A8FFF741FFAB69A4
:10340C00586A07B030BDFFF7C7FFF8E7D81B00209C
:10341C003933000870B5114E4162B36981689A68FE
:10342C009142044603D8BDE87040FFF76DBF1846C3
:10343C00FFF7A0FF01230546B46184F82030EFF3B9
:10344C000983C269643B9A4202D90548FFF784FE9E
:10345C0029462046BDE87040FCF77ABFD81B0020F7
:10346C007C560008044B1A689B6990689B689842CC
:10347C0094BF002001207047D81B002038B50E4C9B
:10348C002368A0691A6822605460012283F8202006
:10349C00A361FFF76FFF0546EFF30983C269643B35
:1034AC009A4202D90548FFF757FEA0692946BDE8A4
:1034BC003840FCF74DBF00BFD81B00207C560008DD
:1034CC0008B5FFF7CFFF18B1BDE80840FFF7D6BF2E
:1034DC0008BDFFF7D3BF00008260C2630022C0E9C1
:1034EC000D2202220284012280F82220074A8161E7
:1034FC005169026141610861506100F128028262E8
:10350C0000F12C02C0E90B22704700BFD81B002031
:10351C00D0E9012343F82C2CA3F1AC0243F83C2C4A
:10352C00026943F86C2C426943F8682C044A016820
:10353C0043F84C2CC268A3F14800FFF7CDBF00BF85
:10354C007503000810B5202383F31188FFF7E0FF03
:10355C0000210446FFF75EFF002383F31188204609
:10356C0010BD000038B50E4B9C69606204F1280553
:10357C00A06AA8420FD194F822303BB994F82130BC
:10358C009B0702BFD4E9043213615A61BDE838408D
:10359C000F20FFF701BF0368A362FFF7B5FEE7E753
:1035AC00D81B0020202383F31188FFF7DBBF08B55D
:1035BC000146202383F311880820FFF70DFF002319
:1035CC0083F3118808BD0000054B9B6921B1036092
:1035DC0058620320FFF700BF4FF0FF30704700BF69
:1035EC00D81B002003682BB10022026059621846D8
:1035FC00FFF78ABE704738B504460D4620688442F2
:10360C0000D138BD036823605C604562FFF77CFE27
:10361C00F4E700234FF0FF32C0E90023C0E9023386
:10362C0000220023C0E9042370470000014B5B68B3
:10363C0083607047001000E00D4A0E4B516FC2685A
:10364C005B68013230B5C260D0E9044582685B1A10
:10365C009B1A42688360E41845F1000593420268A6
:10366C0088BF43609342C0E9044538BF036030BD56
:10367C00D81B0020001000E010B5084C86B00023C9
:10368C0068466367FFF7C5FF6846FFF7CFFF6846DC
:10369C00FFF7D2FF029B636706B010BDD81B00205A
:1036AC000023C0E90000836070470000064A53689D
:1036BC0023F001035360EFF30983683383F3098824
:1036CC00002383F31188704730EF00E010B52023FE
:1036DC0083F31188104B5B6813F4006318D0F1EE80
:1036EC00103AEFF309844FF0807344F84C3C0B4BC9
:1036FC00DB6844F8083CA4F1680383F30988FFF7FE
:10370C00B1FE18B1064B44F8503C10BD054BFAE71E
:10371C0083F31188F9E700BF00ED00E030EF00E023
:10372C00850300088803000808B500F09BFD00F035
:10373C0001FF00F012F800F01AF800F01FF800F08A
:10374C0026F800F02EF800F05AF800F029F8FFF7F0
:10375C009DFBBDE8084000F02EB800F01BBE012315
:10376C0003700023C0E904331830FFF799BF01F050
:10377C00BFB80123037000234360704701F05AB8AF
:10378C0001230370002343600C30FFF789BF01F065
:10379C0011B90123037000234360C36003747047A5
:1037AC00704701F057B8012303700023C0E90133BF
:1037BC000C30FFF775BF01F077B84FF08043002253
:1037CC0058631A610222DA6070474FF0804300227E
:1037DC00DA6070474FF080435863704710B5044669
:1037EC0090F8763080F87E3001F09AFA63681B68A6
:1037FC0013B10121204698470323237010BD01F01B
:10380C006DBA012303700023436000F12C0200F118
:10381C00480142F8043B8A429361FAD183607047B5
:10382C0038B50446202383F311880025C0E90355DD
:10383C00C0E90555C0E90755C0E90955416001F0DB
:10384C0009FB0223237085F3118838BD70B5202342
:10385C00044683F31188254601F046FA002601231D
:10386C00666005F80C3B2C3455F8043B7BB1586969
:10387C0020B16FF001010C30FFF7B4FE55F8043C99
:10388C00986920B16FF001010C30FFF7ABFEA54237
:10389C0045F8046CE8D1FFF713FE86F3118870BD70
:1038AC0070B500EB810305465069DA600E4614468C
:1038BC0018B114220021FCF799FFA06918B1142249
:1038CC000021FCF793FF31462846BDE8704001F01B
:1038DC0031BAF8B5836803F001130446836000F134
:1038EC00100500F12C06002755F8043B7BB15869F4
:1038FC0020B16FF001010C30FFF774FE55F8043C59
:10390C00986920B16FF001010C30FFF76BFEB542E6
:10391C0045F8047CE8D12046BDE8F84001F0C0BA77
:10392C00F0B400EB81044789E4680125A4698D405B
:10393C003D43458123600023A2606360E360F0BCDB
:10394C0001F0F8BAF0B400EB81040789E4680125B2
:10395C0064698D403D43058123600023A260636050
:10396C00E360F0BC01F008BB10B50378052B0BD15C
:10397C00064C236C43F010032364C820FFF717FE9A
:10398C00236C23F01003236410BD00BF005C0040C7
:10399C002DE9F0410223002504460370C5678560BC
:1039AC0000F10C0600F12C074FF0200856F8043BF0
:1039BC00ABB188F3118856F8043C586920B16FF00C
:1039CC0001010C30FFF70EFE56F8043C986920B14B
:1039DC006FF001010C30FFF705FE85F31188BE4234
:1039EC0046F8045CE2D184F86450204601F014FAE5
:1039FC0063681B6823B120460021BDE8F0411847DD
:103A0C00BDE8F081F8B5037880F8803005230370A9
:103A1C0043681B6804460BB10421984704F10C055C
:103A2C0020262C34002755F8043BABB186F31188C3
:103A3C0055F8043C586920B16FF001010C30FFF7C8
:103A4C00D1FD55F8043C986920B16FF001010C30A0
:103A5C00FFF7C8FD87F31188A542E4D1F8BD90F8B3
:103A6C008020436802701B680BB105211847704712
:103A7C0070B590F86430044613B1002380F86430BC
:103A8C0004F17402204601F03BFA63689B68B3B9F9
:103A9C0094F8743013F0600539D00021204601F001
:103AAC009FFA0021204601F089FA63681B6813B164
:103ABC00062120469847062384F8643070BD2046C2
:103ACC0098470028E4D094F87B2094F87A3043EAA5
:103ADC000223E26E9A4288BFE36694F97430E56E75
:103AEC00002B4FF0200380F2F580002D00F0E480D5
:103AFC00092284F8642083F311880021D4E91A2365
:103B0C002046FFF71FFF002383F31188D6E794F8B4
:103B1C00752003F07F0343EA022340F20232934202
:103B2C0000F0B78021D8B3F5807F4DD00DD8012B94
:103B3C0044D0022B00F08580002BAED104F17C0226
:103B4C00A2660222E2662367BDE7B3F5817F00F02F
:103B5C008D80B3F5407FA0D194F87630012B9CD1A9
:103B6C00B4F87C3043F0020337E0B3F5006F3ED07D
:103B7C001CD8B3F5A06F36D0A3F5C063012B8CD83D
:103B8C0094F87920616894F878304E6894F877103E
:103B9C0043EA0223204694F87620B04700283FF4ED
:103BAC007CAF4368A3660368E3661AE0B3F5106F55
:103BBC0022D040F6024293427FF46FAF524BA36681
:103BCC000223E3660023BEE794F87630012B7FF4E2
:103BDC0064AFB4F87C3023F00203C4E91A55A4F89E
:103BEC007C3025676FE7C4E91A55484BABE704F105
:103BFC007F03A3660123D7E72378042B10D120235E
:103C0C0083F311882046FFF764FE85F311880321A6
:103C1C00636884F87F5021701B680BB1204698476D
:103C2C0094F876304BB184F87F30042323706368AA
:103C3C001B6813B10221204698470023C4E91A33AC
:103C4C0081E794F878301D0603F00F0120460AD561
:103C5C0001F048F9012804D002287FF41EAF2C4B48
:103C6C00ADE72C4BABE701F02FF9F3E794F8763086
:103C7C00002B7FF412AF94F8783013F00F01DCD0E6
:103C8C001A06204602D501F0D3F9D6E701F0BAF9AD
:103C9C00D3E794F87630002B7FF4FFAE94F87830AD
:103CAC0013F00F01C9D01B06204602D501F098F97C
:103CBC00C3E701F083F9C0E7142284F8642083F38E
:103CCC0011882B462A4629462046FFF729FE85F304
:103CDC001188F3E65DB1152284F8642083F3118812
:103CEC000021D4E91A232046FFF71AFE0BE70B221A
:103CFC0084F8642083F311882B462A4629462046F3
:103D0C00FFF720FEE3E700BFA6560008E9370008DE
:103D1C00A2560008A456000838B590F86430044642
:103D2C00002B42D0063BDAB20F2A38D80F2B36D8EC
:103D3C00DFE803F03B353508263635353535353576
:103D4C0035353B3B90F87B1090F87A20C36E42EAF5
:103D5C000122934214D2C268128AB3FBF2F502FB21
:103D6C0015356DB9202383F311882B462A46294635
:103D7C00FFF7E8FD85F311880A2384F864300EE020
:103D8C00142384F86430202383F3118800231A460B
:103D9C0019462046FFF7C4FD002383F3118838BD74
:103DAC00036F03B198470023E7E70021204601F099
:103DBC0017F90021204601F001F963681B6813B163
:103DCC000621204698470623D7E710B590F86430B3
:103DDC00142B044629D017D8062B05D001D81BB1BB
:103DEC0010BD093B022BFBD80021204601F0F8F84E
:103DFC000021204601F0E2F863681B6813B106212C
:103E0C0020469847062319E0152BE9D10B2380F89F
:103E1C006430202383F3118800231A461946FFF7D8
:103E2C0091FD002383F31188DAE7C3689B695B6813
:103E3C00002BD5D1036F03B19847002384F864306D
:103E4C00CEE700F1604303F561430901C9B283F881
:103E5C000013012200F01F039A4043099B0003F159
:103E6C00604303F56143C3F880211A60704700007A
:103E7C0000F01F03012142099940044B20321844E1
:103E8C0043F82210002380F80033704700E100E073
:103E9C000D4A08B5516913680B4003F001035361D7
:103EAC0073B10A4A93680BB1D0689847202383F307
:103EBC00118806480021FFF79EFB002383F311882D
:103ECC00BDE80840FFF702BC00040140181D0020AB
:103EDC000D4A08B5516913680B4003F00203536196
:103EEC0073B10A4A93690BB1D0699847202383F3C5
:103EFC00118807480021FFF77EFB002383F311880C
:103F0C00BDE80840FFF7E2BB00040140181D00208B
:103F1C00281D00200D4A08B5516913680B4003F0A9
:103F2C000403536173B10A4A936A0BB1D06A984780
:103F3C00202383F3118807480021FFF75CFB002343
:103F4C0083F31188BDE80840FFF7C0BB00040140B3
:103F5C00181D0020381D00200D4A08B55169136842
:103F6C000B4003F00803536173B10A4A936B0BB116
:103F7C00D06B9847202383F3118807480021FFF763
:103F8C003AFB002383F31188BDE80840FFF79EBB82
:103F9C0000040140181D0020481D00200D4A08B5E2
:103FAC00516913680B4003F01003536173B10A4A53
:103FBC00936C0BB1D06C9847202383F3118807487E
:103FCC000021FFF718FB002383F31188BDE808409C
:103FDC00FFF77CBB00040140181D0020581D002079
:103FEC00324B10B55A691C68144004F478725A614B
:103FFC00A3060ED52E4A936D0BB1D06D9847202396
:10400C0083F311882B480021FFF7F5FA002383F383
:10401C00118860060ED5264A936E0BB1D06E984768
:10402C00202383F3118824480021FFF7E4FA0023AE
:10403C0083F3118821060ED51D4A936F0BB1D06FF7
:10404C009847202383F311881C480021FFF7D3FAEB
:10405C00002383F31188E20510D5154AD2F8883075
:10406C0013B1D2F88C009847202383F3118814489D
:10407C000021FFF7C0FA002383F31188A30510D5A4
:10408C000B4AD2F8983013B1D2F89C0098472023F1
:10409C0083F311880B480021FFF7ADFA002383F35B
:1040AC001188BDE81040FFF711BB00BF00040140B0
:1040BC00181D0020681D0020781D0020881D002080
:1040CC00981D0020A81D00203E4B10B55A691C6895
:1040DC00144004F47C425A61620510D53A4AD2F875
:1040EC00A83013B1D2F8AC009847202383F3118881
:1040FC0036480021FFF77FFA002383F3118823054C
:10410C0010D5314AD2F8B83013B1D2F8BC00984768
:10411C00202383F311882E480021FFF76CFA00232B
:10412C0083F31188E00410D5274AD2F8C83013B1B4
:10413C00D2F8CC009847202383F31188254800211E
:10414C00FFF759FA002383F31188A10410D51E4AF6
:10415C00D2F8D83013B1D2F8DC009847202383F37F
:10416C0011881D480021FFF746FA002383F31188BC
:10417C00620410D5144AD2F8E83013B1D2F8EC002E
:10418C009847202383F3118814480021FFF733FA52
:10419C00002383F31188230410D50B4AD2F8F8308E
:1041AC0013B1D2F8FC009847202383F311880C48F4
:1041BC000021FFF720FA002383F31188BDE810409B
:1041CC00FFF784BA00040140181D0020B81D002020
:1041DC00C81D0020D81D0020E81D0020F81D00205F
:1041EC00081E002008B5034800F0B3FBBDE80840EA
:1041FC00FFF76CBA7C1E0020FFF768BAFFF766BAAF
:10420C00FFF764BA062108B50846FFF71AFE062127
:10421C000720FFF716FE06210820FFF712FE0621E5
:10422C000920FFF70EFE06210A20FFF70AFE0621E1
:10423C001720FFF706FE06212820FFF702FE0721B4
:10424C001820FFF7FEFD07211920FFF7FAFD0721C3
:10425C001A20FFF7F6FDBDE8084007211B20FFF7E9
:10426C00F0BD000010B5224CA26A62F4FC02A262FE
:10427C00A26A02F4FC02A2624FF0FF31A26A226928
:10428C0021612269002222612069E068E160E16815
:10429C00E260E168E169174841F08051E161E16950
:1042AC00016841F480710160216A01F44071B1F53B
:1042BC00007F1EBF4FF4803323622262236A1B04EB
:1042CC0007D4236A43F400732362236A43F4004344
:1042DC00236200F079F8FFF795FFA369064A43F0D3
:1042EC000103A361A369136843F02003136010BD9D
:1042FC00001002400070004000000140224B1A6880
:10430C0042F001021A601A689207FCD55A6822F032
:10431C0003025A605A6812F00C02FBD1196801F0C2
:10432C00F90119605A601A6842F480321A601A68EE
:10433C009003FCD55A6A42F001025A625A6A9107FC
:10434C00FCD5124A5A604FF40452DA6230221A63D6
:10435C001A6842F080721A601A689201FCD50C4AF5
:10436C0012211160116801F007010229FAD15A6873
:10437C0042F002025A605A6802F00C02082AFAD182
:10438C001A6B1A63704700BF0010024000241D0016
:10439C000020024038B5084C2046FFF7E0F9002514
:1043AC00064BA362E562064C2046FFF7D8F9054B95
:1043BC00C4E90A3538BD00BF501C0020A8560008BF
:1043CC00801C0020C45600080B4A0C48002310B572
:1043DC00C2E9003301214468236042F831300131D5
:1043EC000D2900F11000F6D1054A4FF0FF33536050
:1043FC00C2F8043410BD00BFB01C0020E056000809
:10440C000000024010B40468437B21684268D94024
:10441C00126801F00E010A420FD0827B01FA03F3FD
:10442C0063600132064B53F8324034B103EBC203E4
:10443C00586823465DF8044B18475DF8044B7047E9
:10444C00B01C002008B50348FFF7DCFFBDE80840AE
:10445C00FFF73CB9E056000808B50348FFF7D2FF58
:10446C00BDE80840FFF732B9F056000808B503481C
:10447C00FFF7C8FFBDE80840FFF728B90057000850
:10448C0008B50348FFF7BEFFBDE80840FFF71EB9AB
:10449C001057000808B50348FFF7B4FFBDE8084003
:1044AC00FFF714B92057000808B50348FFF7AAFF17
:1044BC00BDE80840FFF70AB93057000808B50348B3
:1044CC00FFF7A0FFBDE80840FFF700B94057000810
:1044DC0008B50348FFF796FFBDE80840FFF7F6B8AC
:1044EC005057000808B50348FFF78CFFBDE808409B
:1044FC00FFF7ECB86057000808B50348FFF782FFD8
:10450C00BDE80840FFF7E2B87057000808B503484B
:10451C00FFF778FFBDE80840FFF7D8B880570008D0
:10452C0008B50348FFF76EFFBDE80840FFF7CEB8AB
:10453C00905700080022064B11460132102AC3E99D
:10454C000033C3E9021103F11003F6D1704700BF29
:10455C00181D00202DE9F74FC2F3C31302F0030A14
:10456C00C2F38009C2F3C108C2F3411E019357463E
:10457C0000224FF00F0BCB0737D5019C02F007033D
:10458C009B0004FA03FC01254468954024EA0504C9
:10459C0044EA0904446085680324560004FA06F6CC
:1045AC0025EA060545EA08058560C56825EA06057D
:1045BC0045EA0E050BFA03F3BAF1020F6FEA060493
:1045CC00C5606FEA03031BD1072A95BF056A456ACC
:1045DC002B402B4095BF43EA0C0343EA0C030362C8
:1045EC00436203681C403C43046049081AD04FEAFC
:1045FC0049094FEA88084FEA8E0EBF000132BAE72C
:10460C0005682C403C43072A046095BF046A446A41
:10461C002340234095BF43EA0C0343EA0C03036297
:10462C004362E2E703B0BDE8F08F836A5B6830B5A4
:10463C00046B5968436862689B68FF2988BFFF2137
:10464C0022F0FF7243EA014322F4803294BF00252A
:10465C004FF0807513432B4343F48063636030BD8C
:10466C00D0E90B315B6840685A684B68806810B5BC
:10467C0023F0FF73FF2A23F4803394BF00244FF000
:10468C00807443EA000388BFFF22234343EA0243BA
:10469C004B6010BD3F4838B5046BA36903F0FE02B4
:1046AC00D906E2612DD5C36A59680A6822F00F0257
:1046BC000A605A7B19680E2303FA02F24A60826A76
:1046CC005568296821F00F0129601168527B9340CD
:1046DC004B60836843F004038360636843F4804356
:1046EC006360236823F046032360202383F311883F
:1046FC006FF001011C30FEF775FF002383F3118866
:10470C0006E01A060BD50378032B05D1FFF7A8FF9B
:10471C00BDE83840FEF7DABFFFF787FFF8E75B0626
:10472C00F6D50178836A03295A681BD1C36A5D6880
:10473C00296821F00F0129605D7B19680E23AB40BD
:10474C004B605368BBB1FFF770FF836A5A681368FC
:10475C0043F001031360636843F400536360042364
:10476C000370D5E7116821F00F011160597B1A68AD
:10477C000E238B405360636843F48043636023686B
:10478C0023F040032360202383F311880248002187
:10479C00B1E700BF181E0020341E002038B5234B93
:1047AC00196B8A6902F47C50C861D96A4C6820681C
:1047BC0020F00F002060487B0C680E2101FA00F0FD
:1047CC006060986A45682C6824F00F042C600468BB
:1047DC00407B81406160D40542BF996841F0010182
:1047EC009960900542BF996841F0020199605105AA
:1047FC0042BF996841F008019960D20499680ED5BE
:10480C0041F020019960202383F3118808486FF050
:10481C000101FEF7E7FE002383F3118801E0002974
:10482C00F1D1BDE83840FEF751BF00BF181E002083
:10483C00341E002010B5054C2046FEF7A1FF0023C6
:10484C00034AE361C4E90A33226310BD181E002039
:10485C000054004010B5084C2046FEF7A4FF074A50
:10486C000023C4E90723636241F20A0141F21803F1
:10487C00C4E90A1310BD00BF4C1E002000380040D4
:10488C004FF0804310B51A69920708D500241C61BB
:10489C00202383F31188FEF765FC84F31188BDE8AF
:1048AC001040FEF713BF00000F4BDA6942F0010213
:1048BC00DA610E4ADB69936843F0010393604FF0B1
:1048CC00804340F2CF229A624FF0FF32DA6200222C
:1048DC009A615A63DA605A6001225A6108211A609F
:1048EC001C20FFF7AEBA00BF00100240002004E00D
:1048FC000B4808B50B4BC360FEF73BFF0A480B4B4C
:10490C00C360FEF736FF0A480A4BC360FEF731FF5F
:10491C0009480A4BC360BDE80840FEF72ABF00BF38
:10492C008C1E0020001000409C1E00200014004033
:10493C00AC1E0020003401407C1E002000400140D1
:10494C00C36800221A601A61DA6822F0FF02DA608A
:10495C00704710B5C36800221A610378042B014616
:10496C0003D102230370FFF7EBFF4B68BDE8104047
:10497C005B6808461847000008B50348FFF7E9FFD5
:10498C00BDE80840FEF7A2BE8C1E002008B5034807
:10499C00FFF7DFFFBDE80840FEF798BE9C1E002025
:1049AC0008B50348FFF7D5FFBDE80840FEF78EBEFB
:1049BC00AC1E002038B5084C2046FEF7EAFE042554
:1049CC00064BA3612574064C2046FEF7E2FE054B10
:1049DC002574A36138BD00BFBC1E0020000400403C
:1049EC00D81E002000080040836970B51A69DD6884
:1049FC001540EAB2D243AE0704461A6103D54368A8
:104A0C001B6903B19847680704D563689B690BB1B0
:104A1C0020469847290704D563681B6A0BB12046CA
:104A2C009847EA0604D563689B6A0BB12046984701
:104A3C00EB0706D563689B681BB12046BDE8704048
:104A4C00184770BD08B50348FFF7CEFFBDE8084016
:104A5C00FEF73CBEBC1E002008B50348FFF7C4FFA0
:104A6C00BDE80840FEF732BED81E00200C4B1B6D73
:104A7C0003F1804303F5C04303EB001011440368BA
:104A8C00426003F1005303F540535B00002AA1EB95
:104A9C00020000DC7047008843F8040B023AF5E78B
:104AAC00005C00402DE9F84F894D6C6C670505D50D
:104ABC006FF4806387486B64FEF76AFF260509D59F
:104ACC002B6C844843F008032B646FF400636B6415
:104ADC00FEF798FFE0040DD57D4DAB6C190406D4A0
:104AEC002B6C7C4823F008032B64FEF7B8FF6FF4A3
:104AFC0080536B64A20508D576484368DB6803B124
:104B0C009847734B6FF400725A64724D724E2304C3
:104B1C0003D4BDE8F84FFEF7D9BD04F00F04A7008D
:104B2C0007F1804707F5B84704F10209D7F800A050
:104B3C0005EB89031AF0800FD3F8048025D03A686E
:104B4C00D8F81430324042F400423A6019695A687D
:104B5C0018680A44801A5A602DD0B8F81020824286
:104B6C0028BF024698681A61014499602046FFF7F5
:104B7C007DFF3B6823F4F04323F0400383F03003C4
:104B8C0043F4004343F080033B601AF4004F0FD012
:104B9C003B68334043F080031AF4006F3B60E1B292
:104BAC0025D005EB89092846D9F804305B6898476D
:104BBC00474B5C6CABE7012303FA04F22B8923EA25
:104BCC0002032B81D8F8083013B1214628469847A8
:104BDC00202383F3118805EB890300215B68586956
:104BEC000C30FEF7FFFC002383F31188CDE7384B24
:104BFC00D8F818201B6DD2F808C003F1804303F5D8
:104C0C00C04303EB0410E1468368D0F80CE003F1D9
:104C1C000053CEF30900CEF3480E03F540534FEA90
:104C2C008E0A0AEB430A5B00534509F1020939D19C
:104C3C006FF0010909FB0E09B9F1000F02D01B68D6
:104C4C000CF81E309368034493605368034453601C
:104C5C0013681B1A1360138A013B9BB21382B8F8BA
:104C6C001220824200D833BB012303FA04F26B8971
:104C7C00023423EA02036B8105EB84035B68DB6877
:104C8C000BB128469847202383F3118805EB840445
:104C9C006368986941680C30FEF7A4FC002383F329
:104CAC00118885E753F804BB09F802BC4FEA1B2BAB
:104CBC0009F801BCB8E73B6823F4904323F0700378
:104CCC0083F4405343F4004343F080033B606FE7AD
:104CDC00005C0040F41E00200F07FFFF0148FEF7A8
:104CEC0090BD00BFF41E002008B50378012B12D034
:104CFC00094B98420FD14A20FFF7BAF84B20FFF727
:104D0C00B7F8064B03221A6403F5DA33DA6922F496
:104D1C000002DA61DB6908BDF41E0020005C004073
:104D2C0090F87E30024A43F08003D364704700BF92
:104D3C00005C004000EB810370B5DD682B6803F06C
:104D4C000303032B5AD0002B0CBF4FF4007300232A
:104D5C002F4A146D6A6904F1804404F5C04404EBD5
:104D6C0001146AB1002262602A8AD0F88460013290
:104D7C0022F001023244C0F8842043F02003266064
:104D8C00AA69C2B16D8A3E2D05F1FF3239D942F0C4
:104D9C001F02204E0132521146EA822292B2E26088
:104DAC00D0F88420013525F001051544C0F8845055
:104DBC0043F40053A2608A0002F1804202F5B8422B
:104DCC0010684404106848BF43F48043400648BF51
:104DDC0043F04003194321F4784148F2800021F05C
:104DEC00F001014323F4F163116023F00703116810
:104DFC005B045B0C4B400343136070BD4FF4C0630A
:104E0C00A6E742F001020132520202F47C42C6E7EC
:104E1C00005C00400080FFFF0C4A10B4002180248D
:104E2C0011655164D4644468E4688C420CBF4FF43F
:104E3C001C444FF41E4414644022C0F88420044ADD
:104E4C005DF8044BC260FFF775BF00BF005C00400B
:104E5C00A057000838B501780129044619D10D4B2B
:104E6C00984211D10C4B0D4DDA6942F40002DA6113
:104E7C00DB6929644A200D21FEF7E3FF0E214B204C
:104E8C00FEF7DFFF00232B642046BDE83840FFF718
:104E9C00C3BF38BDF41E002000100240005C00406F
:104EAC004023C0F88430012248F28000930003F1C3
:104EBC00804303F5B84301321968082A41EA00011E
:104ECC0019601860F2D17047054B53F8210010F4AB
:104EDC00405004D0B0F5805F14BF02200120704711
:104EEC00005C0040054B53F8210010F0300003D05B
:104EFC00102814BF02200120704700BF005C004046
:104F0C000B4B1B6D03F1804303F5C04303EB011105
:104F1C0002F108008B6803F1005303F540535B006A
:104F2C00196822F8021B904203F10403F8D1704770
:104F3C00005C004000EB810010B5C3689869026802
:104F4C00C2B15C8A1319013BB3FBF4F39BB2890029
:104F5C0001F1804101F5B84103820B6823F49043C1
:104F6C0023F0700383F4405343F4004343F0800375
:104F7C000B6010BD0123EAE700EB810010B50C4675
:104F8C00C1684B690A8A18689968824228BF024630
:104F9C001A612046FFF76AFDA00000F1804000F581
:104FAC00B840036823F4F04323F0400383F030034C
:104FBC0043F4004343F08003036010BD890001F10A
:104FCC00804101F5B8410B6823F4904323F0700342
:104FDC0083F4805343F4004343F080030B60704729
:104FEC00890001F1804101F5B8410B6823F4F043CD
:104FFC0023F0400383F0100343F4004343F0800399
:10500C000B607047890001F1804101F5B8410B68D4
:10501C0003F44053B3F5405F09D00B6823F4F0431D
:10502C0023F0400343F4204343F080030B607047AC
:10503C00890001F1804101F5B8410B6803F03003A0
:10504C00302B0BD00B6823F4F04323F0400383F098
:10505C00200343F4004343F080030B6070474B681C
:10506C0043608B688360CB68C3600B6943614B6999
:10507C0003628B6943620B680360704708B5194B78
:10508C009A6A42F4FC029A629A6A22F4FC029A62CC
:10509C009A6A5A6942F4FC025A61134A5B691146D6
:1050AC004FF09040FFF7DBFF104802F11C01FFF7B7
:1050BC00D6FF0F4802F13801FFF7D1FF0D4802F17E
:1050CC005401FFF7CCFF0C4802F17001FFF7C7FF4A
:1050DC000A4802F18C01FFF7C2FFBDE80840FFF758
:1050EC000DB900BF00100240C4570008000400486E
:1050FC0000080048000C004800100048001400484C
:10510C0070470000024B13B10248FBF7B5BA704769
:08511C000000000091060008EC
:04512400F8B500BF1B
:04512800F8B500BF17
:10512C00080C00203E001E001F002000210024005F
:10513C0025002600A5004300460027000000910032
:10514C00BA00000000004D004E00A600E000350043
:10515C003A003B00220023002E0041004C0042008C
:10516C00A8002D00B0000000B900000000004A00AB
:10517C004B004900AB008B008A0089000500110030
:10518C008700650051004500E60038000000000073
:10519C00B80000000000500056004F00E4001D0055
:1051AC001B000600190010003600370053002800C1
:1051BC00A9003200BC006200B70000000000000033
:1051CC0055005400AE00290064003D000A000B009D
:1051DC003F0000002C004400E2003400000062009C
:1051EC00B6000000B400520063006200AD00040081
:1051FC001600070009000D000E000F0059003100C9
:10520C00AA0033000000E700B5000000E5005800DC
:10521C005B005A00AC002B0039003C0017001C004E
:10522C00300040005C002A0000002F00E30000006A
:10523C00B100B200E10063005E005D0048001400A4
:10524C001A000800150018000C0012005F008900FD
:10525C004700130000009000AF00B300A7005700F8
:10526C00610060003E001E001F0020002100240091
:10527C0025002600A50043004600270000009100F1
:10528C00BA00000000004D004E00A600E000350002
:10529C003A003B00220023002E0041004C0042004B
:1052AC00A8002D00B0000000B900000000004A006A
:1052BC004B004900AB008B008A00890005001100EF
:1052CC008700650051004500E60038000000000032
:1052DC00B80000000000500056004F00E4001D0014
:1052EC001B00060019001000360037005300280080
:1052FC00A9003200BC006200B700000000000000F2
:10530C0055005400AE00290064003D000A000B005B
:10531C003F0000002C004400E2003400000062005A
:10532C00B6000000B400520063006200AD0004003F
:10533C001600070009000D000E000F005900310087
:10534C00AA0033000000E700B5000000E50058009B
:10535C005B005A00AC002B0039003C0017001C000D
:10536C00300040005C002A0000002F00E300000029
:10537C00B100B200E10063005E005D004800140063
:10538C001A000800150018000C0012005F008900BC
:10539C004700130000009000AF00B300A7005700B7
:1053AC0061006000E200E900EA00B500B600B70059
:1053BC00CD008301CC008A019201940121022302C9
:1053CC0024022502260227022A02B300B4006F0031
:1053DC007000000001040048000400480710004859
:1053EC00020400480B0400480A0400480D0400485D
:1053FC000C0400480F0400480E040048090C004837
:10540C00080C00480B0C00480A0C00480D0C004816
:10541C000C0C00480F0C00480E0C00480608004805
:10542C000708004801080048000800480308004825
:10543C00020800480100004802140048030000481C
:10544C0004140048E200E900EA00B500B600B70019
:10545C00CD008301CC008A01920194012102230228
:10546C0024022502260227022A02B300B4006F0090
:10547C007000000003000000000000007B2A000800
:10548C000000000008000000BC1900200000000013
:10549C0002000000000000000300000000000000FB
:1054AC00292D00080000000020000000F419002045
:1054BC00000000000200000000000000D52A0008D7
:1054CC007D2A0008B52B00086D2A000874550008C9
:1054DC007855000896550008041C1009023B000280
:1054EC000100A0FA090400000103010100092111C7
:1054FC000100012240000705810308000A0904018C
:10550C0000010300000009211101000122320007F3
:10551C0005820320000A1201100100000040EDFE7C
:10552C00000001000102000105010906A1010507A7
:10553C0019E029E7150025019508750181029501EF
:10554C00750881010507190029FF150026FF009534
:10555C000675088100050819012905950575019145
:10556C0002950175039101C0040309041C03410059
:10557C006E007400610072006300740069006300C7
:10558C006C0069006F006E000000100367006B0078
:10559C0063006F006E0030003100000005010980CF
:1055AC00A101850319012AB700150126B700950141
:1055BC0075108100C0050C0901A101850419012A8F
:1055CC00A002150126A002950175108100C00000F3
:1055DC00C05C0008981F0020981F0020981F002016
:1055EC00C05C00080000000000000000000000008B
:1055FC00C05C00080000000000000000000000007B
:10560C00C05C00080000000000000000000000006A
:10561C00C05C00080000001000000010000000102A
:10562C00C05C00080000000000000000000000004A
:10563C00C05C00080000000000000000000000003A
:10564C00C05C00080000000000000000000000002A
:10565C0069646C65000000005C560008781A002034
:10566C00D81B002001000000C93000080000000019
:10567C00737461636B206F766572666C6F77000074
:10568C006D61696E00160330040444080C10141884
:10569C001C202122000000000100000000740040CA
:1056AC0000000000000000000000FFFF09000000E7
:1056BC00BE2000000A00000000740040030000003F
:1056CC0010000000FFFF00000A000000BE200000D8
:1056DC000A00000000000240080002400100000027
:1056EC000000000B000002401C0002400200000001
:1056FC000004010C000002403000024004000000D5
:10570C000008020D000002404400024008000000A6
:10571C00000C030E00000240580002401000000074
:10572C000010040F000002406C000240200000003A
:10573C0000140510000002408000024040000000F0
:10574C00001806110004024008040240800000000A
:10575C0000000738000402401C0402400001000055
:10576C00000408390004024030040240000200002A
:10577C000008093A000402404404024000040000FE
:10578C00000C0A3B000402405804024000080000D0
:10579C0000100B3C000000007D3A0008253D00087D
:1057AC00D73D0008400040007C1F00207C1F0020DB
:1057BC0001000000901F002000A8802A00000000BB
:1057CC0000FCC03C54111564FFFF00000000505554
:1057DC0000E00E0080A00000C0000000C0F000003F
:1057EC0015055555FFFF00000000004400000000A7
:1057FC00000A000000000000000000F0555555059F
:10580C00FFFF000000007700000000000000000017
:10581C00000000000000000055555555FFFF00002A
:10582C000000000000000000400055550000000082
:10583C00C000FFFF15551501FF000000000000001F
:10584C000000000000000000000000000F0000003D
:10585C0050555555FFFF00000000000000000000EF
:08586C0050ABFF7F01000000BA
:10587400080C00200000000000000000F40E0020CE
:105884005C0F0020C40F0020000000000000000096
:105894000000000000000000000000000000000004
:1058A40000000000000000000000000000000000F4
:1058B40000000000000000000000000000000000E4
:1058C40000000000000000000000000000000000D4
:1058D40000000000000000000000000000000000C4
:1058E40000000000000000000000000000000000B4
:1058F40000000000000000000000000000000000A4
:105904000000000000000000000000000000000093
:105914000000000000000000000000000000000083
:1059240001000000000000000E33CDAB34126DE620
:10593400ECDE05000B000000000000000000000089
:105944000000000000000000000000000000000053
:105954000000000000000000000000000000000043
:105964000000000000000000000000000000000033
:105974000000000000000000000000000000000023
:105CA4009C19002001000000B52D0008C12D00083A
:0C5CB400152E0008192E00084D2E0008C7
:040000050800035597
:00000001FF
